{
  "_format": "hh-sol-artifact-1",
  "contractName": "MyEpicNFT",
  "sourceName": "contracts/MyEpicNFT.sol",
  "abi": [
    {
      "inputs": [],
      "stateMutability": "nonpayable",
      "type": "constructor"
    },
    {
      "anonymous": false,
      "inputs": [
        {
          "indexed": true,
          "internalType": "address",
          "name": "owner",
          "type": "address"
        },
        {
          "indexed": true,
          "internalType": "address",
          "name": "approved",
          "type": "address"
        },
        {
          "indexed": true,
          "internalType": "uint256",
          "name": "tokenId",
          "type": "uint256"
        }
      ],
      "name": "Approval",
      "type": "event"
    },
    {
      "anonymous": false,
      "inputs": [
        {
          "indexed": true,
          "internalType": "address",
          "name": "owner",
          "type": "address"
        },
        {
          "indexed": true,
          "internalType": "address",
          "name": "operator",
          "type": "address"
        },
        {
          "indexed": false,
          "internalType": "bool",
          "name": "approved",
          "type": "bool"
        }
      ],
      "name": "ApprovalForAll",
      "type": "event"
    },
    {
      "anonymous": false,
      "inputs": [
        {
          "indexed": false,
          "internalType": "uint256",
          "name": "times",
          "type": "uint256"
        }
      ],
      "name": "CurrentMintOrder",
      "type": "event"
    },
    {
      "anonymous": false,
      "inputs": [
        {
          "indexed": false,
          "internalType": "address",
          "name": "sender",
          "type": "address"
        },
        {
          "indexed": false,
          "internalType": "uint256",
          "name": "tokenId",
          "type": "uint256"
        }
      ],
      "name": "NewEpicNFTMinted",
      "type": "event"
    },
    {
      "anonymous": false,
      "inputs": [
        {
          "indexed": true,
          "internalType": "address",
          "name": "from",
          "type": "address"
        },
        {
          "indexed": true,
          "internalType": "address",
          "name": "to",
          "type": "address"
        },
        {
          "indexed": true,
          "internalType": "uint256",
          "name": "tokenId",
          "type": "uint256"
        }
      ],
      "name": "Transfer",
      "type": "event"
    },
    {
      "inputs": [
        {
          "internalType": "address",
          "name": "to",
          "type": "address"
        },
        {
          "internalType": "uint256",
          "name": "tokenId",
          "type": "uint256"
        }
      ],
      "name": "approve",
      "outputs": [],
      "stateMutability": "nonpayable",
      "type": "function"
    },
    {
      "inputs": [
        {
          "internalType": "address",
          "name": "owner",
          "type": "address"
        }
      ],
      "name": "balanceOf",
      "outputs": [
        {
          "internalType": "uint256",
          "name": "",
          "type": "uint256"
        }
      ],
      "stateMutability": "view",
      "type": "function"
    },
    {
      "inputs": [
        {
          "internalType": "uint256",
          "name": "tokenId",
          "type": "uint256"
        }
      ],
      "name": "getApproved",
      "outputs": [
        {
          "internalType": "address",
          "name": "",
          "type": "address"
        }
      ],
      "stateMutability": "view",
      "type": "function"
    },
    {
      "inputs": [],
      "name": "getMintOrderTime",
      "outputs": [
        {
          "internalType": "uint256",
          "name": "",
          "type": "uint256"
        }
      ],
      "stateMutability": "view",
      "type": "function"
    },
    {
      "inputs": [
        {
          "internalType": "address",
          "name": "owner",
          "type": "address"
        },
        {
          "internalType": "address",
          "name": "operator",
          "type": "address"
        }
      ],
      "name": "isApprovedForAll",
      "outputs": [
        {
          "internalType": "bool",
          "name": "",
          "type": "bool"
        }
      ],
      "stateMutability": "view",
      "type": "function"
    },
    {
      "inputs": [],
      "name": "makeAnEpicNFT",
      "outputs": [],
      "stateMutability": "nonpayable",
      "type": "function"
    },
    {
      "inputs": [],
      "name": "name",
      "outputs": [
        {
          "internalType": "string",
          "name": "",
          "type": "string"
        }
      ],
      "stateMutability": "view",
      "type": "function"
    },
    {
      "inputs": [
        {
          "internalType": "uint256",
          "name": "tokenId",
          "type": "uint256"
        }
      ],
      "name": "ownerOf",
      "outputs": [
        {
          "internalType": "address",
          "name": "",
          "type": "address"
        }
      ],
      "stateMutability": "view",
      "type": "function"
    },
    {
      "inputs": [
        {
          "internalType": "uint256",
          "name": "tokenId",
          "type": "uint256"
        }
      ],
      "name": "pickRandomFirstWord",
      "outputs": [
        {
          "internalType": "string",
          "name": "",
          "type": "string"
        }
      ],
      "stateMutability": "view",
      "type": "function"
    },
    {
      "inputs": [
        {
          "internalType": "uint256",
          "name": "tokenId",
          "type": "uint256"
        }
      ],
      "name": "pickRandomSecondWord",
      "outputs": [
        {
          "internalType": "string",
          "name": "",
          "type": "string"
        }
      ],
      "stateMutability": "view",
      "type": "function"
    },
    {
      "inputs": [
        {
          "internalType": "uint256",
          "name": "tokenId",
          "type": "uint256"
        }
      ],
      "name": "pickRandomThirdWord",
      "outputs": [
        {
          "internalType": "string",
          "name": "",
          "type": "string"
        }
      ],
      "stateMutability": "view",
      "type": "function"
    },
    {
      "inputs": [
        {
          "internalType": "address",
          "name": "from",
          "type": "address"
        },
        {
          "internalType": "address",
          "name": "to",
          "type": "address"
        },
        {
          "internalType": "uint256",
          "name": "tokenId",
          "type": "uint256"
        }
      ],
      "name": "safeTransferFrom",
      "outputs": [],
      "stateMutability": "nonpayable",
      "type": "function"
    },
    {
      "inputs": [
        {
          "internalType": "address",
          "name": "from",
          "type": "address"
        },
        {
          "internalType": "address",
          "name": "to",
          "type": "address"
        },
        {
          "internalType": "uint256",
          "name": "tokenId",
          "type": "uint256"
        },
        {
          "internalType": "bytes",
          "name": "_data",
          "type": "bytes"
        }
      ],
      "name": "safeTransferFrom",
      "outputs": [],
      "stateMutability": "nonpayable",
      "type": "function"
    },
    {
      "inputs": [
        {
          "internalType": "address",
          "name": "operator",
          "type": "address"
        },
        {
          "internalType": "bool",
          "name": "approved",
          "type": "bool"
        }
      ],
      "name": "setApprovalForAll",
      "outputs": [],
      "stateMutability": "nonpayable",
      "type": "function"
    },
    {
      "inputs": [
        {
          "internalType": "bytes4",
          "name": "interfaceId",
          "type": "bytes4"
        }
      ],
      "name": "supportsInterface",
      "outputs": [
        {
          "internalType": "bool",
          "name": "",
          "type": "bool"
        }
      ],
      "stateMutability": "view",
      "type": "function"
    },
    {
      "inputs": [],
      "name": "symbol",
      "outputs": [
        {
          "internalType": "string",
          "name": "",
          "type": "string"
        }
      ],
      "stateMutability": "view",
      "type": "function"
    },
    {
      "inputs": [
        {
          "internalType": "uint256",
          "name": "tokenId",
          "type": "uint256"
        }
      ],
      "name": "tokenURI",
      "outputs": [
        {
          "internalType": "string",
          "name": "",
          "type": "string"
        }
      ],
      "stateMutability": "view",
      "type": "function"
    },
    {
      "inputs": [
        {
          "internalType": "address",
          "name": "from",
          "type": "address"
        },
        {
          "internalType": "address",
          "name": "to",
          "type": "address"
        },
        {
          "internalType": "uint256",
          "name": "tokenId",
          "type": "uint256"
        }
      ],
      "name": "transferFrom",
      "outputs": [],
      "stateMutability": "nonpayable",
      "type": "function"
    }
  ],
  "bytecode": "0x608060405260405180610160016040528061012f81526020016200458361012f9139600890805190602001906200003892919062000683565b506040518060c001604052806040518060400160405280600c81526020017fe3818de3828ce38184e381aa000000000000000000000000000000000000000081525081526020016040518060400160405280600981526020017fe69c89e5908de381aa000000000000000000000000000000000000000000000081525081526020016040518060400160405280600981526020017fe4bebfe588a9e381aa000000000000000000000000000000000000000000000081525081526020016040518060400160405280600c81526020017fe38199e381a6e3818de381aa000000000000000000000000000000000000000081525081526020016040518060400160405280600f81526020017fe3838fe383b3e382b5e383a0e381aa000000000000000000000000000000000081525081526020016040518060400160405280600f81526020017fe381abe3818ee38284e3818be381aa00000000000000000000000000000000008152508152506009906006620001b692919062000714565b506040518060c001604052806040518060400160405280600981526020017fe7b4b0e3818be38184000000000000000000000000000000000000000000000081525081526020016040518060400160405280600681526020017fe6bf83e38184000000000000000000000000000000000000000000000000000081525081526020016040518060400160405280600681526020017fe89684e38184000000000000000000000000000000000000000000000000000081525081526020016040518060400160405280600681526020017fe5a4aae38184000000000000000000000000000000000000000000000000000081525081526020016040518060400160405280600681526020017fe58e9ae38184000000000000000000000000000000000000000000000000000081525081526020016040518060400160405280600981526020017fe38199e38194e381840000000000000000000000000000000000000000000000815250815250600a9060066200033492919062000714565b506040518060c001604052806040518060400160405280600381526020017fe69cac000000000000000000000000000000000000000000000000000000000081525081526020016040518060400160405280600981526020017fe3839ce383bce383ab000000000000000000000000000000000000000000000081525081526020016040518060400160405280600681526020017fe8b387e69699000000000000000000000000000000000000000000000000000081525081526020016040518060400160405280600381526020017fe7b5b5000000000000000000000000000000000000000000000000000000000081525081526020016040518060400160405280600981526020017fe382b1e383bce382ad000000000000000000000000000000000000000000000081525081526020016040518060400160405280600681526020017fe5b883e59ba30000000000000000000000000000000000000000000000000000815250815250600b906006620004b292919062000714565b506032600c55348015620004c557600080fd5b506040518060400160405280600981526020017f5371756172654e465400000000000000000000000000000000000000000000008152506040518060400160405280600681526020017f535155415245000000000000000000000000000000000000000000000000000081525081600090805190602001906200054a92919062000683565b5080600190805190602001906200056392919062000683565b505050620005b16040518060400160405280601881526020017f54686973206973206d79204e465420636f6e74726163742e0000000000000000815250620005b760201b620012541760201c565b62000935565b6200065781604051602401620005ce919062000849565b6040516020818303038152906040527f41304fac000000000000000000000000000000000000000000000000000000007bffffffffffffffffffffffffffffffffffffffffffffffffffffffff19166020820180517bffffffffffffffffffffffffffffffffffffffffffffffffffffffff83818316178352505050506200065a60201b60201c565b50565b60008151905060006a636f6e736f6c652e6c6f679050602083016000808483855afa5050505050565b8280546200069190620008bf565b90600052602060002090601f016020900481019282620006b5576000855562000701565b82601f10620006d057805160ff191683800117855562000701565b8280016001018555821562000701579182015b8281111562000700578251825591602001919060010190620006e3565b5b5090506200071091906200077b565b5090565b82805482825590600052602060002090810192821562000768579160200282015b82811115620007675782518290805190602001906200075692919062000683565b509160200191906001019062000735565b5b5090506200077791906200079a565b5090565b5b80821115620007965760008160009055506001016200077c565b5090565b5b80821115620007be5760008181620007b49190620007c2565b506001016200079b565b5090565b508054620007d090620008bf565b6000825580601f10620007e4575062000805565b601f0160209004906000526020600020908101906200080491906200077b565b5b50565b600062000815826200086d565b62000821818562000878565b93506200083381856020860162000889565b6200083e8162000924565b840191505092915050565b6000602082019050818103600083015262000865818462000808565b905092915050565b600081519050919050565b600082825260208201905092915050565b60005b83811015620008a95780820151818401526020810190506200088c565b83811115620008b9576000848401525b50505050565b60006002820490506001821680620008d857607f821691505b60208210811415620008ef57620008ee620008f5565b5b50919050565b7f4e487b7100000000000000000000000000000000000000000000000000000000600052602260045260246000fd5b6000601f19601f8301169050919050565b613c3e80620009456000396000f3fe608060405234801561001057600080fd5b50600436106101165760003560e01c806370a08231116100a2578063b88d4fde11610071578063b88d4fde14610305578063c575757a14610321578063c87b56dd14610351578063de9d132f14610381578063e985e9c51461038b57610116565b806370a082311461026b57806395d89b411461029b578063a22cb465146102b9578063b187301f146102d557610116565b80630cbea2ae116100e95780630cbea2ae146101b557806323b872dd146101d35780632de38d68146101ef57806342842e0e1461021f5780636352211e1461023b57610116565b806301ffc9a71461011b57806306fdde031461014b578063081812fc14610169578063095ea7b314610199575b600080fd5b6101356004803603810190610130919061271c565b6103bb565b6040516101429190612e26565b60405180910390f35b61015361049d565b6040516101609190612e41565b60405180910390f35b610183600480360381019061017e919061276e565b61052f565b6040516101909190612d96565b60405180910390f35b6101b360048036038101906101ae91906126e0565b6105b4565b005b6101bd6106cc565b6040516101ca91906130d1565b60405180910390f35b6101ed60048036038101906101e891906125da565b6106dd565b005b6102096004803603810190610204919061276e565b61073d565b6040516102169190612e41565b60405180910390f35b610239600480360381019061023491906125da565b6108d9565b005b6102556004803603810190610250919061276e565b6108f9565b6040516102629190612d96565b60405180910390f35b61028560048036038101906102809190612575565b6109ab565b60405161029291906130d1565b60405180910390f35b6102a3610a63565b6040516102b09190612e41565b60405180910390f35b6102d360048036038101906102ce91906126a4565b610af5565b005b6102ef60048036038101906102ea919061276e565b610b0b565b6040516102fc9190612e41565b60405180910390f35b61031f600480360381019061031a9190612629565b610c29565b005b61033b6004803603810190610336919061276e565b610c8b565b6040516103489190612e41565b60405180910390f35b61036b6004803603810190610366919061276e565b610da9565b6040516103789190612e41565b60405180910390f35b610389610efb565b005b6103a560048036038101906103a0919061259e565b6111c0565b6040516103b29190612e26565b60405180910390f35b60007f80ac58cd000000000000000000000000000000000000000000000000000000007bffffffffffffffffffffffffffffffffffffffffffffffffffffffff1916827bffffffffffffffffffffffffffffffffffffffffffffffffffffffff1916148061048657507f5b5e139f000000000000000000000000000000000000000000000000000000007bffffffffffffffffffffffffffffffffffffffffffffffffffffffff1916827bffffffffffffffffffffffffffffffffffffffffffffffffffffffff1916145b806104965750610495826112ed565b5b9050919050565b6060600080546104ac90613365565b80601f01602080910402602001604051908101604052809291908181526020018280546104d890613365565b80156105255780601f106104fa57610100808354040283529160200191610525565b820191906000526020600020905b81548152906001019060200180831161050857829003601f168201915b5050505050905090565b600061053a82611357565b610579576040517f08c379a000000000000000000000000000000000000000000000000000000000815260040161057090613051565b60405180910390fd5b6004600083815260200190815260200160002060009054906101000a900473ffffffffffffffffffffffffffffffffffffffff169050919050565b60006105bf826108f9565b90508073ffffffffffffffffffffffffffffffffffffffff168373ffffffffffffffffffffffffffffffffffffffff161415610630576040517f08c379a000000000000000000000000000000000000000000000000000000000815260040161062790613091565b60405180910390fd5b8073ffffffffffffffffffffffffffffffffffffffff1661064f6113c3565b73ffffffffffffffffffffffffffffffffffffffff16148061067e575061067d816106786113c3565b6111c0565b5b6106bd576040517f08c379a00000000000000000000000000000000000000000000000000000000081526004016106b490612f91565b60405180910390fd5b6106c783836113cb565b505050565b60006106d86007611484565b905090565b6106ee6106e86113c3565b82611492565b61072d576040517f08c379a0000000000000000000000000000000000000000000000000000000008152600401610724906130b1565b60405180910390fd5b610738838383611570565b505050565b6060600061077161074d846117d7565b60405160200161075d9190612d52565b604051602081830303815290604052611984565b90506107b26040518060400160405280600b81526020017f72616e6420736565643a20000000000000000000000000000000000000000000815250826119b7565b600980549050816107c39190613411565b90506108046040518060400160405280601181526020017f72616e6420666972737420776f72643a20000000000000000000000000000000815250826119b7565b6009818154811061083e577f4e487b7100000000000000000000000000000000000000000000000000000000600052603260045260246000fd5b90600052602060002001805461085390613365565b80601f016020809104026020016040519081016040528092919081815260200182805461087f90613365565b80156108cc5780601f106108a1576101008083540402835291602001916108cc565b820191906000526020600020905b8154815290600101906020018083116108af57829003601f168201915b5050505050915050919050565b6108f483838360405180602001604052806000815250610c29565b505050565b6000806002600084815260200190815260200160002060009054906101000a900473ffffffffffffffffffffffffffffffffffffffff169050600073ffffffffffffffffffffffffffffffffffffffff168173ffffffffffffffffffffffffffffffffffffffff1614156109a2576040517f08c379a000000000000000000000000000000000000000000000000000000000815260040161099990612fd1565b60405180910390fd5b80915050919050565b60008073ffffffffffffffffffffffffffffffffffffffff168273ffffffffffffffffffffffffffffffffffffffff161415610a1c576040517f08c379a0000000000000000000000000000000000000000000000000000000008152600401610a1390612fb1565b60405180910390fd5b600360008373ffffffffffffffffffffffffffffffffffffffff1673ffffffffffffffffffffffffffffffffffffffff168152602001908152602001600020549050919050565b606060018054610a7290613365565b80601f0160208091040260200160405190810160405280929190818152602001828054610a9e90613365565b8015610aeb5780601f10610ac057610100808354040283529160200191610aeb565b820191906000526020600020905b815481529060010190602001808311610ace57829003601f168201915b5050505050905090565b610b07610b006113c3565b8383611a53565b5050565b60606000610b3f610b1b846117d7565b604051602001610b2b9190612ceb565b604051602081830303815290604052611984565b9050600a8054905081610b529190613411565b9050600a8181548110610b8e577f4e487b7100000000000000000000000000000000000000000000000000000000600052603260045260246000fd5b906000526020600020018054610ba390613365565b80601f0160208091040260200160405190810160405280929190818152602001828054610bcf90613365565b8015610c1c5780601f10610bf157610100808354040283529160200191610c1c565b820191906000526020600020905b815481529060010190602001808311610bff57829003601f168201915b5050505050915050919050565b610c3a610c346113c3565b83611492565b610c79576040517f08c379a0000000000000000000000000000000000000000000000000000000008152600401610c70906130b1565b60405180910390fd5b610c8584848484611bc0565b50505050565b60606000610cbf610c9b846117d7565b604051602001610cab9190612cc9565b604051602081830303815290604052611984565b9050600b8054905081610cd29190613411565b9050600b8181548110610d0e577f4e487b7100000000000000000000000000000000000000000000000000000000600052603260045260246000fd5b906000526020600020018054610d2390613365565b80601f0160208091040260200160405190810160405280929190818152602001828054610d4f90613365565b8015610d9c5780601f10610d7157610100808354040283529160200191610d9c565b820191906000526020600020905b815481529060010190602001808311610d7f57829003601f168201915b5050505050915050919050565b6060610db482611357565b610df3576040517f08c379a0000000000000000000000000000000000000000000000000000000008152600401610dea90613031565b60405180910390fd5b6000600660008481526020019081526020016000208054610e1390613365565b80601f0160208091040260200160405190810160405280929190818152602001828054610e3f90613365565b8015610e8c5780601f10610e6157610100808354040283529160200191610e8c565b820191906000526020600020905b815481529060010190602001808311610e6f57829003601f168201915b505050505090506000610e9d611c1c565b9050600081511415610eb3578192505050610ef6565b600082511115610ee8578082604051602001610ed0929190612c45565b60405160208183030381529060405292505050610ef6565b610ef184611c33565b925050505b919050565b600c54610f086007611484565b1415610f53577f046d635828eb9640ee6de40e386a12594ed38aafcb531e98b3d9db9f8b8b0c02610f396007611484565b604051610f4691906130d1565b60405180910390a16111be565b6000610f5f6007611484565b90506000610f6c8261073d565b90506000610f7983610b0b565b90506000610f8684610c8b565b90506000838383604051602001610f9f93929190612c69565b60405160208183030381529060405290506000600882604051602001610fc6929190612c9a565b60405160208183030381529060405290506110156040518060400160405280601281526020017f0a2d2d2d2d2d2d2d2d2d2d2d2d2d2d2d2d2d0000000000000000000000000000815250611254565b61101e81611254565b61105c6040518060400160405280601281526020017f0a2d2d2d2d2d2d2d2d2d2d2d2d2d2d2d2d2d0000000000000000000000000000815250611254565b60006110908361106b84611cda565b60405160200161107c929190612d0d565b604051602081830303815290604052611cda565b90506000816040516020016110a59190612d74565b60405160208183030381529060405290506110f46040518060400160405280601681526020017f0a2d2d2d2d2d20546f6b656e20555249202d2d2d2d2d00000000000000000000815250611254565b6110fd81611254565b61113b6040518060400160405280601181526020017f2d2d2d2d2d2d2d2d2d2d2d2d2d2d2d2d2d000000000000000000000000000000815250611254565b6111453389611e98565b61114f8882611eb6565b611172604051806060016040528060258152602001613ba4602591398933611f2a565b61117c6007611fc9565b7febb98688741ffa4c7589bf325de30cf7becb63de567842e1ccdb6cb949fdc82c33896040516111ad929190612dfd565b60405180910390a150505050505050505b565b6000600560008473ffffffffffffffffffffffffffffffffffffffff1673ffffffffffffffffffffffffffffffffffffffff16815260200190815260200160002060008373ffffffffffffffffffffffffffffffffffffffff1673ffffffffffffffffffffffffffffffffffffffff16815260200190815260200160002060009054906101000a900460ff16905092915050565b6112ea816040516024016112689190612e41565b6040516020818303038152906040527f41304fac000000000000000000000000000000000000000000000000000000007bffffffffffffffffffffffffffffffffffffffffffffffffffffffff19166020820180517bffffffffffffffffffffffffffffffffffffffffffffffffffffffff8381831617835250505050611fdf565b50565b60007f01ffc9a7000000000000000000000000000000000000000000000000000000007bffffffffffffffffffffffffffffffffffffffffffffffffffffffff1916827bffffffffffffffffffffffffffffffffffffffffffffffffffffffff1916149050919050565b60008073ffffffffffffffffffffffffffffffffffffffff166002600084815260200190815260200160002060009054906101000a900473ffffffffffffffffffffffffffffffffffffffff1673ffffffffffffffffffffffffffffffffffffffff1614159050919050565b600033905090565b816004600083815260200190815260200160002060006101000a81548173ffffffffffffffffffffffffffffffffffffffff021916908373ffffffffffffffffffffffffffffffffffffffff160217905550808273ffffffffffffffffffffffffffffffffffffffff1661143e836108f9565b73ffffffffffffffffffffffffffffffffffffffff167f8c5be1e5ebec7d5bd14f71427d1e84f3dd0314c0f7b2291e5b200ac8c7c3b92560405160405180910390a45050565b600081600001549050919050565b600061149d82611357565b6114dc576040517f08c379a00000000000000000000000000000000000000000000000000000000081526004016114d390612f71565b60405180910390fd5b60006114e7836108f9565b90508073ffffffffffffffffffffffffffffffffffffffff168473ffffffffffffffffffffffffffffffffffffffff16148061155657508373ffffffffffffffffffffffffffffffffffffffff1661153e8461052f565b73ffffffffffffffffffffffffffffffffffffffff16145b80611567575061156681856111c0565b5b91505092915050565b8273ffffffffffffffffffffffffffffffffffffffff16611590826108f9565b73ffffffffffffffffffffffffffffffffffffffff16146115e6576040517f08c379a00000000000000000000000000000000000000000000000000000000081526004016115dd90612ef1565b60405180910390fd5b600073ffffffffffffffffffffffffffffffffffffffff168273ffffffffffffffffffffffffffffffffffffffff161415611656576040517f08c379a000000000000000000000000000000000000000000000000000000000815260040161164d90612f31565b60405180910390fd5b611661838383612008565b61166c6000826113cb565b6001600360008573ffffffffffffffffffffffffffffffffffffffff1673ffffffffffffffffffffffffffffffffffffffff16815260200190815260200160002060008282546116bc919061327b565b925050819055506001600360008473ffffffffffffffffffffffffffffffffffffffff1673ffffffffffffffffffffffffffffffffffffffff1681526020019081526020016000206000828254611713919061319a565b92505081905550816002600083815260200190815260200160002060006101000a81548173ffffffffffffffffffffffffffffffffffffffff021916908373ffffffffffffffffffffffffffffffffffffffff160217905550808273ffffffffffffffffffffffffffffffffffffffff168473ffffffffffffffffffffffffffffffffffffffff167fddf252ad1be2c89b69c2b068fc378daa952ba7f163c4a11628f55a4df523b3ef60405160405180910390a46117d283838361200d565b505050565b6060600082141561181f576040518060400160405280600181526020017f3000000000000000000000000000000000000000000000000000000000000000815250905061197f565b600082905060005b6000821461185157808061183a906133c8565b915050600a8261184a91906131f0565b9150611827565b60008167ffffffffffffffff811115611893577f4e487b7100000000000000000000000000000000000000000000000000000000600052604160045260246000fd5b6040519080825280601f01601f1916602001820160405280156118c55781602001600182028036833780820191505090505b5090505b60008514611978576001826118de919061327b565b9150600a856118ed9190613411565b60306118f9919061319a565b60f81b818381518110611935577f4e487b7100000000000000000000000000000000000000000000000000000000600052603260045260246000fd5b60200101907effffffffffffffffffffffffffffffffffffffffffffffffffffffffffffff1916908160001a905350600a8561197191906131f0565b94506118c9565b8093505050505b919050565b6000816040516020016119979190612c2e565b6040516020818303038152906040528051906020012060001c9050919050565b611a4f82826040516024016119cd929190612e63565b6040516020818303038152906040527f9710a9d0000000000000000000000000000000000000000000000000000000007bffffffffffffffffffffffffffffffffffffffffffffffffffffffff19166020820180517bffffffffffffffffffffffffffffffffffffffffffffffffffffffff8381831617835250505050611fdf565b5050565b8173ffffffffffffffffffffffffffffffffffffffff168373ffffffffffffffffffffffffffffffffffffffff161415611ac2576040517f08c379a0000000000000000000000000000000000000000000000000000000008152600401611ab990612f51565b60405180910390fd5b80600560008573ffffffffffffffffffffffffffffffffffffffff1673ffffffffffffffffffffffffffffffffffffffff16815260200190815260200160002060008473ffffffffffffffffffffffffffffffffffffffff1673ffffffffffffffffffffffffffffffffffffffff16815260200190815260200160002060006101000a81548160ff0219169083151502179055508173ffffffffffffffffffffffffffffffffffffffff168373ffffffffffffffffffffffffffffffffffffffff167f17307eab39ab6107e8899845ad3d59bd9653f200f220920489ca2b5937696c3183604051611bb39190612e26565b60405180910390a3505050565b611bcb848484611570565b611bd784848484612012565b611c16576040517f08c379a0000000000000000000000000000000000000000000000000000000008152600401611c0d90612ed1565b60405180910390fd5b50505050565b606060405180602001604052806000815250905090565b6060611c3e82611357565b611c7d576040517f08c379a0000000000000000000000000000000000000000000000000000000008152600401611c7490613071565b60405180910390fd5b6000611c87611c1c565b90506000815111611ca75760405180602001604052806000815250611cd2565b80611cb1846117d7565b604051602001611cc2929190612c45565b6040516020818303038152906040525b915050919050565b60606000825190506000811415611d035760405180602001604052806000815250915050611e93565b60006003600283611d14919061319a565b611d1e91906131f0565b6004611d2a9190613221565b90506000602082611d3b919061319a565b67ffffffffffffffff811115611d7a577f4e487b7100000000000000000000000000000000000000000000000000000000600052604160045260246000fd5b6040519080825280601f01601f191660200182016040528015611dac5781602001600182028036833780820191505090505b5090506000604051806060016040528060408152602001613bc9604091399050600181016020830160005b86811015611e505760038101905062ffffff818a015116603f8160121c168401518060081b905060ff603f83600c1c1686015116810190508060081b905060ff603f8360061c1686015116810190508060081b905060ff603f831686015116810190508060e01b90508084526004840193505050611dd7565b506003860660018114611e6a5760028114611e7a57611e85565b613d3d60f01b6002830352611e85565b603d60f81b60018303525b508484525050819450505050505b919050565b611eb28282604051806020016040528060008152506121a9565b5050565b611ebf82611357565b611efe576040517f08c379a0000000000000000000000000000000000000000000000000000000008152600401611ef590612ff1565b60405180910390fd5b80600660008481526020019081526020016000209080519060200190611f25929190612401565b505050565b611fc4838383604051602401611f4293929190612e93565b6040516020818303038152906040527fe3849f79000000000000000000000000000000000000000000000000000000007bffffffffffffffffffffffffffffffffffffffffffffffffffffffff19166020820180517bffffffffffffffffffffffffffffffffffffffffffffffffffffffff8381831617835250505050611fdf565b505050565b6001816000016000828254019250508190555050565b60008151905060006a636f6e736f6c652e6c6f679050602083016000808483855afa5050505050565b505050565b505050565b60006120338473ffffffffffffffffffffffffffffffffffffffff16612204565b1561219c578373ffffffffffffffffffffffffffffffffffffffff1663150b7a0261205c6113c3565b8786866040518563ffffffff1660e01b815260040161207e9493929190612db1565b602060405180830381600087803b15801561209857600080fd5b505af19250505080156120c957506040513d601f19601f820116820180604052508101906120c69190612745565b60015b61214c573d80600081146120f9576040519150601f19603f3d011682016040523d82523d6000602084013e6120fe565b606091505b50600081511415612144576040517f08c379a000000000000000000000000000000000000000000000000000000000815260040161213b90612ed1565b60405180910390fd5b805181602001fd5b63150b7a0260e01b7bffffffffffffffffffffffffffffffffffffffffffffffffffffffff1916817bffffffffffffffffffffffffffffffffffffffffffffffffffffffff1916149150506121a1565b600190505b949350505050565b6121b38383612227565b6121c06000848484612012565b6121ff576040517f08c379a00000000000000000000000000000000000000000000000000000000081526004016121f690612ed1565b60405180910390fd5b505050565b6000808273ffffffffffffffffffffffffffffffffffffffff163b119050919050565b600073ffffffffffffffffffffffffffffffffffffffff168273ffffffffffffffffffffffffffffffffffffffff161415612297576040517f08c379a000000000000000000000000000000000000000000000000000000000815260040161228e90613011565b60405180910390fd5b6122a081611357565b156122e0576040517f08c379a00000000000000000000000000000000000000000000000000000000081526004016122d790612f11565b60405180910390fd5b6122ec60008383612008565b6001600360008473ffffffffffffffffffffffffffffffffffffffff1673ffffffffffffffffffffffffffffffffffffffff168152602001908152602001600020600082825461233c919061319a565b92505081905550816002600083815260200190815260200160002060006101000a81548173ffffffffffffffffffffffffffffffffffffffff021916908373ffffffffffffffffffffffffffffffffffffffff160217905550808273ffffffffffffffffffffffffffffffffffffffff16600073ffffffffffffffffffffffffffffffffffffffff167fddf252ad1be2c89b69c2b068fc378daa952ba7f163c4a11628f55a4df523b3ef60405160405180910390a46123fd6000838361200d565b5050565b82805461240d90613365565b90600052602060002090601f01602090048101928261242f5760008555612476565b82601f1061244857805160ff1916838001178555612476565b82800160010185558215612476579182015b8281111561247557825182559160200191906001019061245a565b5b5090506124839190612487565b5090565b5b808211156124a0576000816000905550600101612488565b5090565b60006124b76124b284613111565b6130ec565b9050828152602081018484840111156124cf57600080fd5b6124da848285613323565b509392505050565b6000813590506124f181613b47565b92915050565b60008135905061250681613b5e565b92915050565b60008135905061251b81613b75565b92915050565b60008151905061253081613b75565b92915050565b600082601f83011261254757600080fd5b81356125578482602086016124a4565b91505092915050565b60008135905061256f81613b8c565b92915050565b60006020828403121561258757600080fd5b6000612595848285016124e2565b91505092915050565b600080604083850312156125b157600080fd5b60006125bf858286016124e2565b92505060206125d0858286016124e2565b9150509250929050565b6000806000606084860312156125ef57600080fd5b60006125fd868287016124e2565b935050602061260e868287016124e2565b925050604061261f86828701612560565b9150509250925092565b6000806000806080858703121561263f57600080fd5b600061264d878288016124e2565b945050602061265e878288016124e2565b935050604061266f87828801612560565b925050606085013567ffffffffffffffff81111561268c57600080fd5b61269887828801612536565b91505092959194509250565b600080604083850312156126b757600080fd5b60006126c5858286016124e2565b92505060206126d6858286016124f7565b9150509250929050565b600080604083850312156126f357600080fd5b6000612701858286016124e2565b925050602061271285828601612560565b9150509250929050565b60006020828403121561272e57600080fd5b600061273c8482850161250c565b91505092915050565b60006020828403121561275757600080fd5b600061276584828501612521565b91505092915050565b60006020828403121561278057600080fd5b600061278e84828501612560565b91505092915050565b6127a0816132af565b82525050565b6127af816132c1565b82525050565b60006127c082613157565b6127ca818561316d565b93506127da818560208601613332565b6127e3816134fe565b840191505092915050565b60006127f982613162565b612803818561317e565b9350612813818560208601613332565b61281c816134fe565b840191505092915050565b600061283282613162565b61283c818561318f565b935061284c818560208601613332565b80840191505092915050565b6000815461286581613365565b61286f818661318f565b9450600182166000811461288a576001811461289b576128ce565b60ff198316865281860193506128ce565b6128a485613142565b60005b838110156128c6578154818901526001820191506020810190506128a7565b838801955050505b50505092915050565b60006128e460328361317e565b91506128ef8261350f565b604082019050919050565b600061290760258361317e565b91506129128261355e565b604082019050919050565b600061292a601c8361317e565b9150612935826135ad565b602082019050919050565b600061294d600a8361318f565b9150612958826135d6565b600a82019050919050565b600061297060248361317e565b915061297b826135ff565b604082019050919050565b600061299360198361317e565b915061299e8261364e565b602082019050919050565b60006129b660638361318f565b91506129c182613677565b606382019050919050565b60006129d9600b8361318f565b91506129e482613712565b600b82019050919050565b60006129fc602c8361317e565b9150612a078261373b565b604082019050919050565b6000612a1f600d8361318f565b9150612a2a8261378a565b600d82019050919050565b6000612a4260388361317e565b9150612a4d826137b3565b604082019050919050565b6000612a65602a8361317e565b9150612a7082613802565b604082019050919050565b6000612a8860298361317e565b9150612a9382613851565b604082019050919050565b6000612aab602e8361317e565b9150612ab6826138a0565b604082019050919050565b6000612ace60028361318f565b9150612ad9826138ef565b600282019050919050565b6000612af160208361317e565b9150612afc82613918565b602082019050919050565b6000612b1460318361317e565b9150612b1f82613941565b604082019050919050565b6000612b37602c8361317e565b9150612b4282613990565b604082019050919050565b6000612b5a602f8361317e565b9150612b65826139df565b604082019050919050565b6000612b7d600a8361318f565b9150612b8882613a2e565b600a82019050919050565b6000612ba060218361317e565b9150612bab82613a57565b604082019050919050565b6000612bc3600a8361318f565b9150612bce82613aa6565b600a82019050919050565b6000612be6601d8361318f565b9150612bf182613acf565b601d82019050919050565b6000612c0960318361317e565b9150612c1482613af8565b604082019050919050565b612c2881613319565b82525050565b6000612c3a8284612827565b915081905092915050565b6000612c518285612827565b9150612c5d8284612827565b91508190509392505050565b6000612c758286612827565b9150612c818285612827565b9150612c8d8284612827565b9150819050949350505050565b6000612ca68285612858565b9150612cb28284612827565b9150612cbd82612a12565b91508190509392505050565b6000612cd482612940565b9150612ce08284612827565b915081905092915050565b6000612cf6826129cc565b9150612d028284612827565b915081905092915050565b6000612d1882612b70565b9150612d248285612827565b9150612d2f826129a9565b9150612d3b8284612827565b9150612d4682612ac1565b91508190509392505050565b6000612d5d82612bb6565b9150612d698284612827565b915081905092915050565b6000612d7f82612bd9565b9150612d8b8284612827565b915081905092915050565b6000602082019050612dab6000830184612797565b92915050565b6000608082019050612dc66000830187612797565b612dd36020830186612797565b612de06040830185612c1f565b8181036060830152612df281846127b5565b905095945050505050565b6000604082019050612e126000830185612797565b612e1f6020830184612c1f565b9392505050565b6000602082019050612e3b60008301846127a6565b92915050565b60006020820190508181036000830152612e5b81846127ee565b905092915050565b60006040820190508181036000830152612e7d81856127ee565b9050612e8c6020830184612c1f565b9392505050565b60006060820190508181036000830152612ead81866127ee565b9050612ebc6020830185612c1f565b612ec96040830184612797565b949350505050565b60006020820190508181036000830152612eea816128d7565b9050919050565b60006020820190508181036000830152612f0a816128fa565b9050919050565b60006020820190508181036000830152612f2a8161291d565b9050919050565b60006020820190508181036000830152612f4a81612963565b9050919050565b60006020820190508181036000830152612f6a81612986565b9050919050565b60006020820190508181036000830152612f8a816129ef565b9050919050565b60006020820190508181036000830152612faa81612a35565b9050919050565b60006020820190508181036000830152612fca81612a58565b9050919050565b60006020820190508181036000830152612fea81612a7b565b9050919050565b6000602082019050818103600083015261300a81612a9e565b9050919050565b6000602082019050818103600083015261302a81612ae4565b9050919050565b6000602082019050818103600083015261304a81612b07565b9050919050565b6000602082019050818103600083015261306a81612b2a565b9050919050565b6000602082019050818103600083015261308a81612b4d565b9050919050565b600060208201905081810360008301526130aa81612b93565b9050919050565b600060208201905081810360008301526130ca81612bfc565b9050919050565b60006020820190506130e66000830184612c1f565b92915050565b60006130f6613107565b90506131028282613397565b919050565b6000604051905090565b600067ffffffffffffffff82111561312c5761312b6134cf565b5b613135826134fe565b9050602081019050919050565b60008190508160005260206000209050919050565b600081519050919050565b600081519050919050565b600082825260208201905092915050565b600082825260208201905092915050565b600081905092915050565b60006131a582613319565b91506131b083613319565b9250827fffffffffffffffffffffffffffffffffffffffffffffffffffffffffffffffff038211156131e5576131e4613442565b5b828201905092915050565b60006131fb82613319565b915061320683613319565b92508261321657613215613471565b5b828204905092915050565b600061322c82613319565b915061323783613319565b9250817fffffffffffffffffffffffffffffffffffffffffffffffffffffffffffffffff04831182151516156132705761326f613442565b5b828202905092915050565b600061328682613319565b915061329183613319565b9250828210156132a4576132a3613442565b5b828203905092915050565b60006132ba826132f9565b9050919050565b60008115159050919050565b60007fffffffff0000000000000000000000000000000000000000000000000000000082169050919050565b600073ffffffffffffffffffffffffffffffffffffffff82169050919050565b6000819050919050565b82818337600083830152505050565b60005b83811015613350578082015181840152602081019050613335565b8381111561335f576000848401525b50505050565b6000600282049050600182168061337d57607f821691505b60208210811415613391576133906134a0565b5b50919050565b6133a0826134fe565b810181811067ffffffffffffffff821117156133bf576133be6134cf565b5b80604052505050565b60006133d382613319565b91507fffffffffffffffffffffffffffffffffffffffffffffffffffffffffffffffff82141561340657613405613442565b5b600182019050919050565b600061341c82613319565b915061342783613319565b92508261343757613436613471565b5b828206905092915050565b7f4e487b7100000000000000000000000000000000000000000000000000000000600052601160045260246000fd5b7f4e487b7100000000000000000000000000000000000000000000000000000000600052601260045260246000fd5b7f4e487b7100000000000000000000000000000000000000000000000000000000600052602260045260246000fd5b7f4e487b7100000000000000000000000000000000000000000000000000000000600052604160045260246000fd5b6000601f19601f8301169050919050565b7f4552433732313a207472616e7366657220746f206e6f6e20455243373231526560008201527f63656976657220696d706c656d656e7465720000000000000000000000000000602082015250565b7f4552433732313a207472616e736665722066726f6d20696e636f72726563742060008201527f6f776e6572000000000000000000000000000000000000000000000000000000602082015250565b7f4552433732313a20746f6b656e20616c7265616479206d696e74656400000000600082015250565b7f54484952445f574f524400000000000000000000000000000000000000000000600082015250565b7f4552433732313a207472616e7366657220746f20746865207a65726f2061646460008201527f7265737300000000000000000000000000000000000000000000000000000000602082015250565b7f4552433732313a20617070726f766520746f2063616c6c657200000000000000600082015250565b7f222c20226465736372697074696f6e223a20224120686967686c79206163636c60008201527f61696d656420636f6c6c656374696f6e206f6620737175617265732e222c202260208201527f696d616765223a2022646174613a696d6167652f7376672b786d6c3b6261736560408201527f36342c0000000000000000000000000000000000000000000000000000000000606082015250565b7f5345434f4e445f574f5244000000000000000000000000000000000000000000600082015250565b7f4552433732313a206f70657261746f7220717565727920666f72206e6f6e657860008201527f697374656e7420746f6b656e0000000000000000000000000000000000000000602082015250565b7f3c2f746578743e3c2f7376673e00000000000000000000000000000000000000600082015250565b7f4552433732313a20617070726f76652063616c6c6572206973206e6f74206f7760008201527f6e6572206e6f7220617070726f76656420666f7220616c6c0000000000000000602082015250565b7f4552433732313a2062616c616e636520717565727920666f7220746865207a6560008201527f726f206164647265737300000000000000000000000000000000000000000000602082015250565b7f4552433732313a206f776e657220717565727920666f72206e6f6e657869737460008201527f656e7420746f6b656e0000000000000000000000000000000000000000000000602082015250565b7f45524337323155524953746f726167653a2055524920736574206f66206e6f6e60008201527f6578697374656e7420746f6b656e000000000000000000000000000000000000602082015250565b7f227d000000000000000000000000000000000000000000000000000000000000600082015250565b7f4552433732313a206d696e7420746f20746865207a65726f2061646472657373600082015250565b7f45524337323155524953746f726167653a2055524920717565727920666f722060008201527f6e6f6e6578697374656e7420746f6b656e000000000000000000000000000000602082015250565b7f4552433732313a20617070726f76656420717565727920666f72206e6f6e657860008201527f697374656e7420746f6b656e0000000000000000000000000000000000000000602082015250565b7f4552433732314d657461646174613a2055524920717565727920666f72206e6f60008201527f6e6578697374656e7420746f6b656e0000000000000000000000000000000000602082015250565b7f7b226e616d65223a202200000000000000000000000000000000000000000000600082015250565b7f4552433732313a20617070726f76616c20746f2063757272656e74206f776e6560008201527f7200000000000000000000000000000000000000000000000000000000000000602082015250565b7f46495253545f574f524400000000000000000000000000000000000000000000600082015250565b7f646174613a6170706c69636174696f6e2f6a736f6e3b6261736536342c000000600082015250565b7f4552433732313a207472616e736665722063616c6c6572206973206e6f74206f60008201527f776e6572206e6f7220617070726f766564000000000000000000000000000000602082015250565b613b50816132af565b8114613b5b57600080fd5b50565b613b67816132c1565b8114613b7257600080fd5b50565b613b7e816132cd565b8114613b8957600080fd5b50565b613b9581613319565b8114613ba057600080fd5b5056fe416e204e465420772f20494420257320686173206265656e206d696e74656420746f2025734142434445464748494a4b4c4d4e4f505152535455565758595a6162636465666768696a6b6c6d6e6f707172737475767778797a303132333435363738392b2fa26469706673582212200c54191fc23e278c5f30dd8cd61a944ac64332f34a1844d37279921ba8ee0d9064736f6c634300080400333c73766720786d6c6e733d27687474703a2f2f7777772e77332e6f72672f323030302f73766727207072657365727665417370656374526174696f3d27784d696e594d696e206d656574272076696577426f783d273020302033353020333530273e3c7374796c653e2e62617365207b2066696c6c3a2077686974653b20666f6e742d66616d696c793a2073657269663b20666f6e742d73697a653a20323470783b207d3c2f7374796c653e3c726563742077696474683d273130302527206865696768743d2731303025272066696c6c3d27626c61636b27202f3e3c7465787420783d273530252720793d273530252720636c6173733d27626173652720646f6d696e616e742d626173656c696e653d276d6964646c652720746578742d616e63686f723d276d6964646c65273e",
  "linkReferences": {},
  "deployedLinkReferences": {}
}